:100000000C9450000C946D000C946D000C946D00D9
:100010000C946D000C946D000C946D000C946D00AC
:100020000C946D000C946D000C946D000C946D009C
:100030000C946D000C946D000C946D000C946D008C
:100040000C946D000C946D000C946D000C946D007C
:100050000C946D000C946D000C946D000C946D006C
:100060000C946D000C946D0005A84CCDB2D44EB923
:100070003836A9020C50B9918688083CA6AAAA2A4B
:10008000BE000000803F0000000000001E010000D4
:1000900018011201000000000C010601000100001F
:1000A00011241FBECFEFD8E0DEBFCDBF11E0A0E02E
:1000B000B1E0EEE1F6E002C005900D92A432B10786
:1000C000D9F721E0A4E2B1E001C01D92A433B20748
:1000D000E1F70E948B000C940D030C940000E82FB4
:1000E000F0E0EE0FFF1FEA57FF4FA591B491109774
:1000F00089F01296ED91FC91139781EA8083149612
:10010000ED91FC91159784E08083ED91FC9170E076
:10011000718360830895259A80E090E0A0E8BFE3B2
:100120008093240190932501A0932601B093270189
:10013000C0902401D0902501E0902601F090270185
:1001400020EE3EE245E652E4C701B6010E940A02F3
:100150000E9477020E940703BC01990F880B990B3C
:100160000E947E01609330017093310180933201CF
:100170009093330122E93AE046E85FE3C701B60114
:100180000E94100120EE3EE245E652E40E940A027F
:100190000E9477020E940703BC01990F880B990BFC
:1001A0000E947E0160932C0170932D0180932E019B
:1001B00090932F0122E93AE046E050E4C701B601EE
:1001C0000E94100120EE3EE245E652E40E940A023F
:1001D0000E9477020E940703BC01990F880B990BBC
:1001E0000E947E01609328017093290180932A0167
:1001F00090932B012D9A2FEF83ED90E321508040B7
:100200009040E1F700C000002D982FEF83ED90E3C0
:10021000215080409040E1F700C0000089CF505845
:10022000BB27AA270E9427010C94D0010E94C2017B
:1002300038F00E94C90120F039F49F3F19F426F4E8
:100240000C94BF010EF4E095E7FB0C94B901E92F83
:100250000E94E10158F3BA176207730784079507F4
:1002600020F079F4A6F50C9403020EF4E0950B2E21
:10027000BA2FA02D0B01B90190010C01CA01A001F8
:100280001124FF27591B99F0593F50F4503E68F153
:100290001A16F040A22F232F342F4427585FF3CF94
:1002A000469537952795A795F0405395C9F77EF465
:1002B0001F16BA0B620B730B840BBAF09150A1F0AE
:1002C000FF0FBB1F661F771F881FC2F70EC0BA0F34
:1002D000621F731F841F48F4879577956795B795BC
:1002E000F7959E3F08F0B0CF9395880F08F09927B7
:1002F000EE0F979587950895E89409C097FB3EF413
:1003000090958095709561957F4F8F4F9F4F992362
:10031000A9F0F92F96E9BB279395F69587957795E0
:100320006795B795F111F8CFFAF4BB0F11F460FFA0
:100330001BC06F5F7F4F8F4F9F4F16C0882311F0F8
:1003400096E911C0772321F09EE8872F762F05C00C
:10035000662371F096E8862F70E060E02AF09A95A7
:10036000660F771F881FDAF7880F9695879597F99C
:10037000089597F99F6780E870E060E008959FEF27
:1003800080EC089500240A9416161706180609062C
:10039000089500240A9412161306140605060895FB
:1003A000092E0394000C11F4882352F0BB0F40F483
:1003B000BF2B11F460FF04C06F5F7F4F8F4F9F4FC3
:1003C000089557FD9058440F551F59F05F3F71F045
:1003D0004795880F97FB991F61F09F3F79F08795AC
:1003E0000895121613061406551FF2CF4695F1DF35
:1003F00008C0161617061806991FF1CF86957105C5
:10040000610508940895E894BB2766277727CB01F8
:1004100097F908950E941D020C94D0010E94C20118
:1004200038F00E94C90120F0952311F00C94B90115
:100430000C94BF0111240C9404020E94E10170F39A
:10044000959FC1F3950F50E0551F629FF001729F79
:10045000BB27F00DB11D639FAA27F00DB11DAA1F88
:10046000649F6627B00DA11D661F829F2227B00DD5
:10047000A11D621F739FB00DA11D621F839FA00D60
:10048000611D221F749F3327A00D611D231F849FB0
:10049000600D211D822F762F6A2F11249F57504007
:1004A0009AF0F1F088234AF0EE0FFF1FBB1F661F82
:1004B000771F881F91505040A9F79E3F510580F04B
:1004C0000C94B9010C9404025F3FE4F3983ED4F31A
:1004D000869577956795B795F795E7959F5FC1F7EF
:1004E000FE2B880F911D9695879597F908959F93F8
:1004F0000E9481020F9007FCEE5F0C94AA020C94FC
:10050000BF010E94E901D8F3E894E0E0BB279F57C0
:10051000F0F02AED3FE049EC06C0EE0FBB0F661F7E
:10052000771F881F28F0B23A62077307840728F004
:10053000B25A620B730B840BE3959A9572F780386D
:1005400030F49A95BB0F661F771F881FD2F790482B
:100550000C94C002EF93E0FF07C0A2EA2AED3FE04F
:1005600049EC5FEB0E9427010E94D0010F90039499
:1005700001FC9058E8E6F0E00C94CC029F3F31F08B
:10058000915020F4879577956795B795880F911DC1
:100590009695879597F908959F938F937F936F937F
:1005A000FF93EF939B01AC010E940A02EF91FF9130
:1005B0000E94E0022F913F914F915F910C940A02AB
:1005C000DF93CF931F930F93FF92EF92DF927B0104
:1005D0008C01689406C0DA2EEF010E941D02FE0114
:1005E000E894A5912591359145915591A6F3EF0198
:1005F0000E942701FE019701A801DA9469F7DF90B4
:10060000EF90FF900F911F91CF91DF91089597FF89
:0E06100003C09195819591090895F894FFCF4C
:10061E00B300B000B1008A00800081008800800025
:10062E008100470044004500480044004500B400E6
:04063E00B000B10057
:00000001FF
